:0400000002002132A7
:03000B000204F0FC
:0100130032BA
:03001B000204706C
:10007A0075210F7522EEE4F525F526F529F52AF501
:10008A002BF52CF52DF52EF533F534F535F536F53A
:10009A0037F538F539F53AF53BF53CF543F544F5CE
:0400AA004502001EED
:03001E0002017C60
:1000AE00AE827547C07548007549F9754A00754BA3
:1000BE00A4754C00754DB0754E00754F9975500076
:1000CE007551927552007553827554007555407571
:1000DE005600755779755800755930755A00755B0D
:1000EE0019755C00755D12755E00755F897560002F
:1000FE007561C77562007563FF75640075658B75F4
:10010E00660075678C756800756988756A00756B11
:10011E0091756C00E54625462447F987A08EF005BB
:10012E00F07E017F008006EE2EFEEF33FFD5F0F756
:10013E00EEA2E3E433B401009200E43324FF929183
:10014E00EE03035401B401009200E43324FF9292B3
:10015E00EE035401B401009200E43324FF9293EEB7
:10016E005401B401009200E43324FF929422758D61
:10017E000B758BDC900657E493FEA3E493FF8F8CF4
:10018E008E8A75891175885075A88A7580EFE52D50
:10019E00452E7035E522C4540FFE8E3DAE21E5226C
:1001AE00C454F0CEC4CE6ECE54F0CE6EC4540FFEF8
:1001BE008E3EE521C4540FFE8E3FE521C454F0C49B
:1001CE00540FFE7F008E40801EE545700E753D106B
:1001DE00753E0D753F11754012800C753D12753EC2
:1001EE0011753F0D754010E4F52FF530852F828582
:1001FE003083E52F243DF987461200AE7541007518
:10020E004264D542FD7542640541749C254150EF10
:10021E00052FE4B52F020530AE2FAF30C3EE940498
:10022E00EF940040C7E5437004C29580267407B56D
:10023E00431AD295754100754264D542FD754264EC
:10024E000541749C254150EFC2958007740EB5434D
:10025E0002D295E539B53543E53AB5363EE4F52D8E
:10026E00F52EF529F52AF537F53875210F7522EE9D
:10027E00F52FF530E52F2401F582E5303400F583B6
:10028E00741AF0052FE4B52F020530AE2FAF30C330
:10029E00EE94E8EF940340DC754500120581AF82C1
:1002AE008F23752400AE23AF24BE1005BF0002803D
:1002BE0011852325852426E5447004F53BF53C7510
:1002CE004401BE1005BF000280030203DB7401B5BA
:1002DE00440280030203DBAC21E522C454F0CCC4FB
:1002EE00CC6CCC54F0CC6CFDE5252CF521E5263DEF
:1002FE00F522754400AC25AD26BC0C10BD000D7466
:10030E00F225434007AB4374072BF543BC0D0EBDDE
:10031E00000BE5436007E543FB24F9F543E4BC0F0E
:10032E0004BD000104FB602AC003AA3BAB3CC3EA38
:10033E00940AEB9400D0035019752901E4F52AF5BF
:10034E0027F528752D01F52EF535F536F533F534EF
:10035E008036EB6033AA3BAB3CC3740A9AE49B50E5
:10036E0027752901752A00AA39AB3AEA24F6FAEB69
:10037E0034FFFB8A278B28752D01E4F52EF535F514
:10038E0036F533F534754501BC0E42BD003FE4F53C
:10039E002DF52EF529F52AF537F538F545F5437582
:1003AE00210F7522EEF52FF530E52F2401F582E5AC
:1003BE00303400F583741AF0052FE4B52F020530A2
:1003CE00AC2FAD30C3EC94E8ED940340DCC3EE9457
:1003DE0007EF94005020752901E4F52AF52BF52C32
:1003EE00AC437D00EC2EFCED3FFD8C318D3205379C
:1003FE00E4B537020538C374069EE49F5030C3EE51
:10040E00940CEF94005027752901E4F52AF52BF58D
:10041E002CAC437D00EC2EFEED3FFF740E2EFEE461
:10042E003FFF8E318F320537E4B537020538AE37D0
:10043E00AF38BE0111BF000E753301E4F534F52758
:10044E00F528F539F53AAE2BAF2CBE0105BF0002EB
:10045E00800302019CE4F529F52A75311AF5320262
:10046E00019CC0E0C082C083C0D075D018AE33AF3F
:10047E0034BE011BBF0018E5272401F582E52834A0
:10048E0000F583E531FFF00539E4B53902053A058B
:10049E002BE4B52B02052C053BE4B53B02053CE5F0
:1004AE004570120527E4B5270205280535E4B53554
:1004BE00130536800F152774FFB5270215288527DB
:1004CE003985283AAE27AF28BEE808BF0305E4F504
:1004DE0027F528758D0B758BDCD0D0D083D082D0CC
:1004EE00E032C0E0C0F0C082C083C0D075D008AE8C
:1004FE0029AF2ABE011EBF001BE5272401F582E5A8
:10050E00283400F583E0FFBF1A06E5334534600456
:10051E00B2908004A2909290AE2DAF2EBE012BBF52
:10052E000028E5272401F582E5283400F583E075DF
:10053E00F002A42457F582740635F0F583E493FE99
:10054E00A3E493FF8F8C8E8A801EE5312531FEE564
:10055E003233FFEE2457F582EF3406F583E493FE33
:10056E00A3E493FF8F8C8E8AD0D0D083D082D0F02C
:03057E00D0E03298
:100657008CF85CF915FA68FA05FB90FB0CFC46FC74
:10066700AEFC0BFD34FD83FDC8FD06FE23FE57FEE1
:1006770086FE9AFEC2FEE4FE03FFF3F8B9F9B9FA63
:100687004CFBD0FB000000007AFCDDFC5DFDA6FD05
:10069700E8FD000000003DFE6FFEAFFED3FEF4FE56
:1006A7001A00000000000000000000000000000029
:1006B7000000000000000000000000000000000033
:1006C7000000000000000000000000000000000023
:1006D7000000000000000000000000000000000013
:1006E7000000000000000000000000000000000003
:100581007546EE7547DE7548BE75497E754AED754F
:100591004BDD754CBD754D7D754EEB754FDB755063
:1005A100BB75517B7552E77553D77554B775557740
:1005B10075560075570475580875590C755A0175AB
:1005C1005B05755C09755D0D755E02755F0675608D
:1005D1000A75610E75620375630775640B75650FA6
:1005E1007566FE7567FD7568FB7569F77F10E4F543
:1005F1006AF56BC3E56A9404E56B64809480504F9F
:10060100E56A2466F98780E56A256AFBE56B33FCB8
:10061100EB2BFBEC33EB2446FAE4F56CF56DC3E50B
:100621006C9404E56D64809480501AE56C2AF9E7B6
:10063100B58008EB2456256CF98707056CE4B56C89
:10064100DD056D80D9056AE4B56AA8056B80A48FC4
:02065100822203
:06005000E478FFF6D8FD84
:10002E0079E8E94403601B7A049006A7780175A06D
:10003E0000E493F2A308B8000205A0D9F4DAF27531
:02004E00A0FF11
:100056007800E84400600A790175A000E4F309D845
:10006600FC7800E84400600C7900900001E4F0A3FD
:04007600D8FCD9FADF
:0D00210075816D120653E582600302001E1A
:04065300758200228A
:00000001FF
